:020000040000FA
:100000000C9462000C948A000C948A000C948A0070
:100010000C948A000C948A000C948A000C948A0038
:100020000C948A000C948A000C948A000C948A0028
:100030000C948A000C948A000C948A000C948A0018
:100040000C9445050C948A000C9413050C94ED0453
:100050000C948A000C948A000C948A000C948A00F8
:100060000C948A000C948A000000000024002700F1
:100070002A0000000000250028002B0000000008D6
:10008000000201000003040700000000000000005F
:1000900000000000230026002900040404040404D6
:1000A0000404020202020202030303030303010227
:1000B00004081020408001020408102001020408F6
:1000C0001020D40511241FBECFEFD8E0DEBFCDBF76
:1000D00022E0A8EEB1E001C01D92A43BB207E1F717
:1000E00011E0A0E0B1E0E8E8FCE102C005900D926B
:1000F000A83EB107D9F710E0C2E6D0E004C02197CE
:10010000FE010E944A0CC136D107C9F70E94390688
:100110000C94420E0C940000AF92BF92CF92DF92EB
:10012000EF92FF920F931F93CF93DF936C017B01AC
:100130008B01040F151FEB015E01AE18BF08C0173D
:10014000D10759F06991D601ED91FC910190F081B0
:10015000E02DC6010995892B79F7C501DF91CF9173
:100160001F910F91FF90EF90DF90CF90BF90AF90D5
:100170000895FC01538D448D252F30E0842F90E0AD
:10018000821B930B541710F0CF9608950197089592
:10019000FC01918D828D981761F0A28DAE0FBF2F5B
:1001A000B11D5D968C91928D9F5F9F73928F90E0B1
:1001B00008958FEF9FEF0895FC01918D828D981720
:1001C00031F0828DE80FF11D858D90E008958FEF5D
:1001D0009FEF0895FC01918D228D892F90E0805C26
:1001E0009F4F821B91098F739927089585EF91E0A6
:1001F0000E94EA0021E0892B09F420E0822F089573
:1002000080E090E0892B29F00E94F60081110C9487
:1002100000000895FC01A48DA80FB92FB11DA35AA9
:10022000BF4F2C91848D90E001968F739927848F16
:10023000A689B7892C93A089B1898C918370806439
:100240008C93938D848D981306C00288F389E02DDA
:1002500080818F7D80830895EF92FF920F931F938B
:10026000CF93DF93EC0181E0888F9B8D8C8D981369
:100270001AC0E889F989808185FF15C09FB7F89475
:10028000EE89FF896083E889F989808183708064C1
:1002900080839FBF81E090E0DF91CF911F910F910C
:1002A000FF90EF900895F62E0B8D10E00F5F1F4F1B
:1002B0000F731127E02E8C8D8E110CC00FB607FC2A
:1002C000FACFE889F989808185FFF5CFCE010E94B8
:1002D0000A01F1CFEB8DEC0FFD2FF11DE35AFF4F1B
:1002E000F0829FB7F8940B8FEA89FB898081806246
:1002F000CFCFCF93DF93EC01888D8823B9F0AA8903
:10030000BB89E889F9898C9185FD03C0808186FDD0
:100310000DC00FB607FCF7CF8C9185FFF2CF80811F
:1003200085FFEDCFCE010E940A01E9CFDF91CF9189
:100330000895833081F028F4813099F08230A9F05B
:1003400008958730A9F08830C9F08430B1F48091E5
:1003500080008F7D03C0809180008F778093800024
:10036000089584B58F7784BD089584B58F7DFBCFC4
:100370008091B0008F778093B00008958091B00095
:100380008F7DF9CFCF93DF93282F30E0F901E45828
:10039000FF4F8491F901E255FF4FD491F901E656E0
:1003A000FF4FC491CC23A1F081110E949901EC2F41
:1003B000F0E0EE0FFF1FE057FF4FA591B491EC91D5
:1003C000ED2381E090E009F480E0DF91CF91089582
:1003D00080E090E0FACF1F93CF93DF93282F30E097
:1003E000F901E458FF4F8491F901E255FF4FD49190
:1003F000F901E656FF4FC491CC23A9F0162F8111C5
:100400000E949901EC2FF0E0EE0FFF1FEE58FF4F16
:10041000A591B4918FB7F894EC91111108C0D095C3
:10042000DE23DC938FBFDF91CF911F910895DE2BE8
:10043000F8CFCF93DF9390E0FC01E255FF4F24917A
:1004400086569F4FFC0184918823D1F090E0880F5D
:10045000991FFC01E859FF4FA591B491FC01EE589A
:10046000FF4FC591D49161110EC09FB7F8948C9144
:10047000E22FE0958E238C932881E223E8839FBFAF
:10048000DF91CF9108958FB7F894EC91E22BEC9324
:100490008FBFF6CF3FB7F8948091E9019091EA01C0
:1004A000A091EB01B091EC0126B5A89B05C02F3FB0
:1004B00019F00196A11DB11D3FBFBA2FA92F982F8A
:1004C0008827BC01CD01620F711D811D911D42E085
:1004D000660F771F881F991F4A95D1F708958F924D
:1004E0009F92AF92BF92CF92DF92EF92FF926B01F9
:1004F0007C010E944A024B015C01C114D104E10459
:10050000F104B9F00E944A02681979098A099B0925
:10051000683E73408105910580F321E0C21AD1083D
:10052000E108F10888EE880E83E0981EA11CB11C3A
:10053000E4CFFF90EF90DF90CF90BF90AF909F906F
:100540008F900895089590E080E00895CF93DF9311
:10055000EC0160E08E810E94EB0161E08E810E94DF
:10056000EB0160E08E810E94EB018BE891E0019746
:10057000F1F7DF91CF910895CF92DF92EF92FF9242
:100580000F931F93CF93DF936C017C0187E0E80EFC
:10059000F11CD0E0C0E0062F10E0B8010C2E02C024
:1005A000759567950A94E2F76170F70181917F0173
:1005B0000E94EB012196C430D10579F7C601DF9185
:1005C000CF911F910F91FF90EF90DF90CF900C94FF
:1005D000A602CF92DF92EF92FF920F931F93CF93D9
:1005E000DF93EC01F62E642F8C810E94EB018D814C
:1005F0008F3F19F060E00E94EB010F2D10E08F8516
:1006000084FF25C06E0187E0C80ED11CF12CE12CBF
:10061000B8010E2C02C0759567950A94E2F76170D7
:10062000F60181916F010E94EB01FFEFEF1AFF0AC3
:1006300088E0E816F10461F7CE01DF91CF911F91B8
:100640000F91FF90EF90DF90CF900C94A602B8012D
:1006500084E0759567958A95E1F7CE010E94BC020A
:100660006F2DCE01DF91CF911F910F91FF90EF90F1
:10067000DF90CF900C94BC0240E0682F82E992E0BA
:100680000C94E90281E00E943C038BE39FE1019717
:10069000F1F70895CF93DF93613029F09091A10293
:1006A00098609093A1026093A5021092A60290E434
:1006B0009093A7028093A802805C8093A90261E0D6
:1006C000809196020E941902809197028F3F19F043
:1006D00061E00E94190261E0809198020E94190273
:1006E000C2E9D2E09E01225932408091A10284FDEC
:1006F0000BC084E090E021962817390744F461E0AC
:100700008E810E941902EECF88E090E0F4CF8BE357
:100710009DE00197F1F760E0809196020E94EB0165
:1007200060E0809198020E94EB01809197028F3FD8
:1007300019F060E00E94EB018091A10284FD34C0B9
:1007400063E082E992E00E94BC02CBE4D6E4CE01F1
:100750000197F1F763E082E992E00E94BC022197E1
:10076000F1F763E082E992E00E94BC0283E592E047
:100770000197F1F762E082E992E00E94BC02809169
:10078000A10280620E943C0384E08093A2028CE07C
:100790000E943C030E94420382E08093A30286E011
:1007A000DF91CF910C943C0380620E943C038BE468
:1007B00096E40197F1F78091A10280620E943C03C8
:1007C00083E592E00197F1F78091A10280620E9497
:1007D0003C03D5CF9091A502691710F06FEF690F18
:1007E000E62FF0E0EE56FD4F9489890F80680C9457
:1007F0003C0341E00E94E90281E090E00895FB01A2
:1008000001900020E9F73197AF01461B570BDC013F
:10081000ED91FC910280F381E02D09948F929F92DB
:10082000AF92BF92EF92FF920F931F93CF93DF93FC
:10083000CDB7DEB7A1970FB6F894DEBF0FBECDBF20
:100840007C01FA01CB0119A2223008F42AE08E01C2
:100850000F5D1F4F822E912CB12CA12CBF01A50141
:1008600094010E94280CF901CA016A300CF5605D00
:10087000D8016E938D01232B242B252B79F790E043
:1008800080E0109721F0BD01C7010E94FF03A196EF
:100890000FB6F894DEBF0FBECDBFDF91CF911F9191
:1008A0000F91FF90EF90BF90AF909F908F90089521
:1008B000695CDECFCF92DF92EF92FF920F931F938E
:1008C000CF93DF9377FF21C06A017B01EC01E881C0
:1008D000F9810190F081E02D6DE209958C014427AA
:1008E0005527BA014C195D096E097F092AE0CE012E
:1008F0000E940E04800F911FDF91CF911F910F91E5
:10090000FF90EF90DF90CF9008952AE0DF91CF9194
:100910001F910F91FF90EF90DF90CF900C940E04F9
:100920000F931F93CF93DF93EC010E94FF038C0181
:1009300064E271E0CE010E94FF03800F911FDF91FE
:10094000CF911F910F910895EF92FF920F931F93F4
:10095000CF93DF93EC017B01198218821B821A82EC
:100960001D821C82FB0101900020E9F731978F0165
:10097000061B170BB8016F5F7F4F90E080E00E946D
:10098000750D0097B9F0998388831B830A832C81A6
:100990003D81232B11F4FC0110821D830C83B701D0
:1009A00088819981DF91CF911F910F91FF90EF90F6
:1009B0000C943B0E88819981009711F00E94EC0CF9
:1009C000198218821D821C821B821A82DF91CF91AC
:1009D0001F910F91FF90EF9008951F920F920FB605
:1009E0000F9211242F933F934F935F936F937F93B5
:1009F0008F939F93AF93BF93EF93FF9385EF91E016
:100A00000E940A01FF91EF91BF91AF919F918F9149
:100A10007F916F915F914F913F912F910F900FBEFA
:100A20000F901F9018951F920F920FB60F921124DE
:100A30002F938F939F93EF93FF93E0910502F09193
:100A400006028081E0910B02F0910C0282FD1BC036
:100A5000908180910E028F5F8F7320910F02821719
:100A600041F0E0910E02F0E0EB50FE4F958F809345
:100A70000E02FF91EF919F918F912F910F900FBEDA
:100A80000F901F9018958081F4CF1F920F920FB690
:100A90000F9211242F933F938F939F93AF93BF9304
:100AA0008091ED019091EE01A091EF01B091F001E4
:100AB0003091E80123E0230F2D3758F50196A11D51
:100AC000B11D2093E8018093ED019093EE01A09376
:100AD000EF01B093F0018091E9019091EA01A091BA
:100AE000EB01B091EC010196A11DB11D8093E901CC
:100AF0009093EA01A093EB01B093EC01BF91AF9109
:100B00009F918F913F912F910F900FBE0F901F904B
:100B1000189526E8230F0296A11DB11DD2CFCF92C2
:100B2000DF92EF92FF920F931F93E82FF92F05C0EA
:100B3000015011092109310961F19081962394171F
:100B4000B9F305C0015011092109310911F1908152
:100B500096239413F7CFC12CD12CE12CF12C0AC091
:100B60008FEFC81AD80AE80AF80A0C151D052E05D9
:100B70003F0579F080818623841791F36C2D7D2DBC
:100B80008E2D9F2D1F910F91FF90EF90DF90CF90B2
:100B9000089560E070E080E090E01F910F91FF9079
:100BA000EF90DF90CF900895CF93DF93E5EFF1E0E2
:100BB0001382128288EE93E0A0E0B0E084839583F4
:100BC000A683B7838AE091E09183808385EC90E0EF
:100BD0009587848784EC90E09787868780EC90E007
:100BE000918B808B81EC90E0938B828B82EC90E0F8
:100BF000958B848B86EC90E0978B868B118E128E72
:100C0000138E148ECAEAD2E08FE090E09983888335
:100C100084EF91E0A0E0B0E08A839B83AC83BD8346
:100C200061E08FE00E94190261E088810E94EB017F
:100C3000E2E9F2E0138212828CE191E091838083F9
:100C400087E084838FEF858386E0868385E08783D2
:100C500084E0808783E0818782E082871386148620
:100C600015861686178661E080E1DF91CF910C949E
:100C70004A03CF93DF93CDB7DEB728970FB6F8942A
:100C8000DEBF0FBECDBF789484B5826084BD84B5CD
:100C9000816084BD85B5826085BD85B5816085BD77
:100CA00080916E00816080936E001092810080912F
:100CB00081008260809381008091810081608093B7
:100CC0008100809180008160809380008091B100DC
:100CD00084608093B1008091B00081608093B00007
:100CE00080917A00846080937A0080917A0082609B
:100CF00080937A0080917A00816080937A0080915D
:100D00007A00806880937A001092C100E091050219
:100D1000F091060282E08083E0910102F0910202EC
:100D20001082E0910302F09104028FEC8083109214
:100D30000D02E0910902F0910A0286E08083E091C1
:100D40000702F0910802808180618083E0910702B0
:100D5000F0910802808188608083E0910702F09121
:100D60000802808180688083E0910702F091080288
:100D700080818F7D808361E088E00E94190260E0BD
:100D800089E00E94190261E08DE00E94190264E08E
:100D900084E10E944A0361E080E00E94EA0360E986
:100DA00071E080E090E00E946F020E94420368EED2
:100DB00073E080E090E00E946F0243E0242E312C2B
:100DC000CE01069698878F8360E088E00E94EB0151
:100DD000C1010197F1F761E088E00E94EB0183E235
:100DE00090E00197F1F760E088E00E94EB01E7EB0B
:100DF000F0E06491E3EAF0E08491E82FF0E0EE0F98
:100E0000FF1FE057FF4F8591949100E412E42FE01B
:100E100030E0462F0E948F0561157105810591050F
:100E200029F06F5F7F4F8F4F9F4F9F7095958795EC
:100E3000779567950E94B5092DEC3CEC48EE51E49E
:100E40000E94760B0E94E80B6B017C01F8E1CF1643
:100E5000D104E104F10404F50E94420361E080E062
:100E60000E94EA0368E271E082E992E00E94FF03D7
:100E700067E271E085EF91E00E94900460E971E023
:100E800080E090E00E946F020E94420368EC70E0F4
:100E900080E090E00E946F0260E081E00E94EA033F
:100EA00068E371E082E992E00E94FF03B701A601C6
:100EB00082E992E00E945A0464E471E082E992E0DF
:100EC0000E94FF03B701A60185EF91E00E945A043A
:100ED00063E471E085EF91E00E94900464EF71E0BB
:100EE00080E090E00E946F026091AC027091AD02D0
:100EF0008091AE029091AF020E946F0261E08091FA
:100F0000AA020E94190260E08091AA020E94EB01ED
:100F100062E170E080E090E00E946F0261E0809109
:100F2000AA020E94EB018BE990E00197F1F760E0E3
:100F30008091AA020E9419028FB7F894C090ED0127
:100F4000D090EE01E090EF01F090F0018FBF809122
:100F5000AA020E94C201019781F52FB7F8948091EF
:100F6000ED019091EE01A091EF01B091F0012FBF42
:100F70008C199D09AE09BF09893E9340A105B105B1
:100F800030F369E871E0CE0101960E94A4044D811E
:100F90005E8169817A8185EF91E00E948C0064E234
:100FA00071E085EF91E00E94FF0389819A810097AB
:100FB00009F4BBC00E94EC0CB8C08091AA020E9448
:100FC000C201892BF1F68BE391E00197F1F7809153
:100FD000AA020E94C2010197A1F68BE391E001975A
:100FE000F1F78E010F5F1F4F380187E0E82EF12CDB
:100FF000D12C8091AA020E94C201892BD1F383E7F0
:1010000090E00197F1F78091AA020E94C20181301D
:10101000910531F40E2C01C0880F0A94EAF7D82A02
:101020008091AA020E94C2010197D1F381E0E81ADF
:10103000F108F8F6F801D1928F01FDEFDF1609F4FF
:10104000A0CF8F8198858017910779F6C9804B8052
:101050004D818A818C0D9927991F9C01240D311D8A
:101060008C81820F932F911D99274817190609F03B
:1010700071C167E471E085EF91E00E94FF03512C9C
:10108000712C612CB301A20185EF91E00E945A04FA
:1010900065E571E085EF91E00E94FF03D12CF12C12
:1010A000E12CB701A60185EF91E00E945A0465E6A4
:1010B00071E085EF91E00E94900461E080E00E9481
:1010C000EA0368E671E082E992E00E94FF0361E0D2
:1010D00082E00E94EA03B301A20182E992E00E9449
:1010E0005A046CE671E082E992E00E94FF0361E03D
:1010F0008AE00E94EA036EE671E082E992E00E94D3
:10110000900461E08CE00E94EA03B701A60182E945
:1011100092E00E945A0461E08EE00E94EA0366E6D3
:1011200071E082E992E00E94900490E490937C0048
:1011300080917A00806480937A0080917A0086FDA5
:10114000FCCF8091780060917900762F682F072E70
:10115000000C880B990B0E94B50920E030EC4FE79A
:1011600054E40E94760B20E030E040EA50E40E9414
:10117000140A6B017C012B013C01C092F101D09259
:10118000F201E092F301F092F401AC019B010E94A4
:10119000230C61E771E081111BC046015701E894FF
:1011A000B7F82FEF3FEF4FE75FE7C501B4010E94AB
:1011B000230C81114BC02FEF3FEF4FE75FE7C501D5
:1011C000B4010E94AE0918160CF040C065E771E04A
:1011D00085EF91E00E94FF0364E271E085EF91E00A
:1011E0000E94FF0364E670E080E090E00E946F02DE
:1011F00020E030E040E450E46091F1017091F201B0
:101200008091F3019091F4010E941E0C63E0181686
:101210000CF09CC08FE00E94EA036DE771E082E968
:1012200092E00E94FF0363E871E082E992E00E948D
:10123000FF03E0E0F0E0EF2B09F4C6CD0E94F600DA
:10124000882309F4C1CD0E940000BECD2FEF3FEFEF
:101250004FE75FE4C701B6010E941E0C18161CF48C
:1012600069E771E0B5CF2FEF3FEF4FE75FECC701C4
:10127000B6010E94AE0987FDF3CF20E030E0A9015E
:10128000C701B6010E94AE0987FF0BC06DE285EF72
:1012900091E00E942C012601370177FA709477F8CB
:1012A00070942AE037ED43EA5BE3C301B2010E9488
:1012B0000A0B2B013C010E94EF0B6B017C010E9489
:1012C000B3099B01AC01C301B2010E94090B2B01C0
:1012D0003C012AE0B701A60185EF91E00E940E04CF
:1012E0006EE285EF91E00E942C0120E030E040E2C8
:1012F00051E4C301B2010E94140A2B013C010E9477
:10130000EF0B6B01F12CE12C2AE0B701A60185EF70
:1013100091E00E940E04C701B6010E94B3099B012F
:10132000AC01C301B2010E94090B20E030E040E2B1
:1013300051E40E94140A0E94EF0BAB0170E060E0E0
:101340002AE085EF91E00E940E0446CF8FE00E94D4
:10135000EA0369CF61EB71E0C30117CE0E94F00987
:1013600008F481E00895E89409C097FB3EF4909555
:101370008095709561957F4F8F4F9F4F9923A9F06E
:10138000F92F96E9BB279395F695879577956795FD
:10139000B795F111F8CFFAF4BB0F11F460FF1BC041
:1013A0006F5F7F4F8F4F9F4F16C0882311F096E9D4
:1013B00011C0772321F09EE8872F762F05C0662382
:1013C00071F096E8862F70E060E02AF09A95660F3B
:1013D000771F881FDAF7880F9695879597F90895F4
:1013E000990F0008550FAA0BE0E8FEEF1616170636
:1013F000E807F907C0F012161306E407F50798F09E
:10140000621B730B840B950B39F40A2661F0232BB6
:10141000242B252B21F408950A2609F4A140A69532
:101420008FEF811D811D08950E94270A0C94980A50
:101430000E948A0A38F00E94910A20F0952311F048
:101440000C94810A0C94870A11240C94CC0A0E94F3
:10145000A90A70F3959FC1F3950F50E0551F629F45
:10146000F001729FBB27F00DB11D639FAA27F00DFD
:10147000B11DAA1F649F6627B00DA11D661F829F24
:101480002227B00DA11D621F739FB00DA11D621F09
:10149000839FA00D611D221F749F3327A00D611D26
:1014A000231F849F600D211D822F762F6A2F112408
:1014B0009F5750409AF0F1F088234AF0EE0FFF1F3B
:1014C000BB1F661F771F881F91505040A9F79E3F92
:1014D000510580F00C94810A0C94CC0A5F3FE4F330
:1014E000983ED4F3869577956795B795F795E795E8
:1014F0009F5FC1F7FE2B880F911D9695879597F9F1
:10150000089597F99F6780E870E060E008959FEF85
:1015100080EC089500240A9416161706180609068A
:10152000089500240A941216130614060506089559
:10153000092E0394000C11F4882352F0BB0F40F4E1
:10154000BF2B11F460FF04C06F5F7F4F8F4F9F4F21
:10155000089557FD9058440F551F59F05F3F71F0A3
:101560004795880F97FB991F61F09F3F79F087950A
:101570000895121613061406551FF2CF4695F1DF93
:1015800008C0161617061806991FF1CF8695710523
:10159000610508940895E894BB2766277727CB0157
:1015A00097F908952F923F924F925F926F927F9298
:1015B0008F929F92AF92BF92CF92DF92EF92FF9263
:1015C0000F931F93CF93DF93CDB7DEB7CA1BDB0B0F
:1015D0000FB6F894DEBF0FBECDBF09942A883988B4
:1015E00048885F846E847D848C849B84AA84B984BB
:1015F000C884DF80EE80FD800C811B81AA81B981C7
:10160000CE0FD11D0FB6F894DEBF0FBECDBFED01DA
:1016100008955058BB27AA270E94210B0C94980AC2
:101620000E948A0A38F00E94910A20F039F49F3F04
:1016300019F426F40C94870A0EF4E095E7FB0C9459
:10164000810AE92F0E94A90A58F3BA1762077307A3
:101650008407950720F079F4A6F50C94CB0A0EF4D4
:10166000E0950B2EBA2FA02D0B01B90190010C01B2
:10167000CA01A0011124FF27591B99F0593F50F4CA
:10168000503E68F11A16F040A22F232F342F442722
:10169000585FF3CF469537952795A795F04053951A
:1016A000C9F77EF41F16BA0B620B730B840BBAF0EA
:1016B0009150A1F0FF0FBB1F661F771F881FC2F755
:1016C0000EC0BA0F621F731F841F48F48795779569
:1016D0006795B795F7959E3F08F0B0CF9395880F23
:1016E00008F09927EE0F9795879508950E948A0B29
:1016F0000C94980A0E94910A58F00E948A0A40F0BD
:1017000029F45F3F29F00C94810A51110C94CC0A02
:101710000C94870A0E94A90A68F39923B1F3552310
:1017200091F3951B550BBB27AA27621773078407F4
:1017300038F09F5F5F4F220F331F441FAA1FA9F38A
:1017400035D00E2E3AF0E0E832D091505040E69578
:10175000001CCAF72BD0FE2F29D0660F771F881FD9
:10176000BB1F261737074807AB07B0E809F0BB0BCC
:10177000802DBF01FF2793585F4F3AF09E3F5105E0
:1017800078F00C94810A0C94CC0A5F3FE4F3983E05
:10179000D4F3869577956795B795F7959F5FC9F7C9
:1017A000880F911D9695879597F90895E1E0660F4A
:1017B000771F881FBB1F621773078407BA0720F0C3
:1017C000621B730B840BBA0BEE1F88F7E09508952C
:1017D0000E94EF0B6894B1110C94CC0A08950E94FA
:1017E000B10A88F09F5798F0B92F9927B751B0F0F8
:1017F000E1F0660F771F881F991F1AF0BA95C9F795
:1018000014C0B13091F00E94CB0AB1E008950C945D
:10181000CB0A672F782F8827B85F39F0B93FCCF310
:10182000869577956795B395D9F73EF49095809511
:10183000709561957F4F8F4F9F4F08950E94F009DB
:1018400008F48FEF08950E94F009880B990B089512
:10185000A1E21A2EAA1BBB1BFD010DC0AA1FBB1FB4
:10186000EE1FFF1FA217B307E407F50720F0A21B26
:10187000B30BE40BF50B661F771F881F991F1A9493
:1018800069F760957095809590959B01AC01BD01BD
:10189000CF010895EE0FFF1F0590F491E02D0994FC
:1018A0000F931F93CF93DF938230910510F482E062
:1018B00090E0E091B202F091B30230E020E0B0E0BD
:1018C000A0E0309799F42115310509F44AC0281B8E
:1018D000390B24303105D8F58A819B81611571055A
:1018E00089F1FB0193838283FE0111C04081518104
:1018F0000281138148175907E0F04817590799F4F6
:10190000109761F012960C93129713961C933296CF
:10191000CF01DF91CF911F910F9108950093B202F3
:101920001093B302F4CF2115310551F0421753073C
:1019300038F0A901DB019A01BD01DF01F801C1CF37
:10194000EF01F9CF9093B3028093B202CDCFFE01A5
:10195000E20FF31F81939193225031093983288339
:10196000D7CF2091B0023091B102232B41F42091C6
:101970000201309103013093B1022093B002209113
:101980000001309101012115310541F42DB73EB719
:101990004091040150910501241B350BE091B002E8
:1019A000F091B102E217F307A0F42E1B3F0B2817AA
:1019B000390778F0AC014E5F5F4F2417350748F0C8
:1019C0004E0F5F1F5093B1024093B00281939193E9
:1019D0009FCFF0E0E0E09CCFCF93DF930097E9F05A
:1019E000FC01329713821282A091B202B091B3022D
:1019F000ED0130E020E01097A1F420813181820FC9
:101A0000931F2091B0023091B1022817390709F0D5
:101A100061C0F093B102E093B002DF91CF910895DD
:101A2000EA01CE17DF07E8F54A815B819E01411587
:101A30005105B1F7E901FB83EA8349915991C40F3C
:101A4000D51FEC17FD0761F4808191810296840F08
:101A5000951FE90199838883828193819B838A837F
:101A6000F0E0E0E012968D919C9113970097B9F504
:101A70002D913C911197CD010296820F931F2091D9
:101A8000B0023091B1022817390739F6309751F575
:101A90001092B3021092B202B093B102A093B002BE
:101AA000BCCFD383C28340815181840F951FC81757
:101AB000D90761F44E5F5F4F88819981480F591FA4
:101AC000518340838A819B819383828321153105D1
:101AD00009F0B0CFF093B302E093B2029ECFFD01C4
:101AE000DC01C0CF13821282D7CFB0E0A0E0EBE7D9
:101AF000FDE00C94D40A8C01009751F4CB010E94B4
:101B0000500C8C01C801CDB7DEB7E0E10C94F00AAF
:101B1000FC01E60FF71F9C0122503109E217F30781
:101B200008F49DC0D901CD91DC911197C617D70754
:101B300098F0C530D10530F3CE010497861797078A
:101B400008F3C61BD70B2297C193D1936D937C9357
:101B5000CF010E94EC0CD6CF5B01AC1ABD0A4C0140
:101B60008C0E9D1EA091B202B091B302512C412C5B
:101B7000F12CE12C109731F58091B0029091B102D7
:101B80008815990509F05CC04616570608F058C03C
:101B90008091000190910101009741F48DB79EB7AB
:101BA0004091040150910501841B950BE817F9073A
:101BB00008F055C0F093B102E093B002F9017183CF
:101BC0006083A0CF8D919C91119712966C90129783
:101BD00013967C901397A815B90559F56C0142E04E
:101BE000C40ED11CCA14DB0420F1AC014A195B09F4
:101BF000DA011296159780F06282738251834083D6
:101C0000D9016D937C93E114F10471F0D70113961F
:101C1000FC93EE93129776CF22968C0F9D1FF901BD
:101C200091838083F301EFCFF093B302E093B2028C
:101C300069CF4816590608F42C017D01D3019ACFCB
:101C4000CB010E94500C7C01009749F0AE01B80115
:101C50000E94320EC8010E94EC0C870153CF10E0A5
:101C600000E050CFFB01DC0102C001900D92415019
:101C70005040D8F70895FB01DC0101900D9200203F
:101C8000E1F70895F894FFCF0000B402800000004F
:101C900000002C018C00B9007901EA00C800DC00CA
:101CA00000000000F9038C00A302A2020D0A00202C
:101CB000487572646C65204465746563746564007E
:101CC00044697374616E63653D200020636D005448
:101CD000656D70657261747572653A200020C2B0DE
:101CE000430948756D69646974793A2000202500BC
:101CF000543A20004300483A006E616E00696E66F7
:101D0000006F7666006461726B20006C69676874AE
:101D1000004572726F7220323533205265616469FA
:101D20006E672066726F6D204448543131207469AB
:101D30006D6564206F75742E004572726F7220326B
:101D4000353420436865636B73756D206D69736D01
:101D500061746368207768696C6520726561646985
:101D60006E672066726F6D2044485431312E00003A
:107E0000112484B714BE81FFF0D085E080938100F7
:107E100082E08093C00088E18093C10086E0809377
:107E2000C20080E18093C4008EE0C9D0259A86E02C
:107E300020E33CEF91E0309385002093840096BBD3
:107E4000B09BFECF1D9AA8958150A9F7CC24DD24C4
:107E500088248394B5E0AB2EA1E19A2EF3E0BF2EE7
:107E6000A2D0813461F49FD0082FAFD0023811F036
:107E7000013811F484E001C083E08DD089C08234E0
:107E800011F484E103C0853419F485E0A6D080C0E4
:107E9000853579F488D0E82EFF2485D0082F10E0AE
:107EA000102F00270E291F29000F111F8ED06801E7
:107EB0006FC0863521F484E090D080E0DECF843638
:107EC00009F040C070D06FD0082F6DD080E0C81688
:107ED00080E7D80618F4F601B7BEE895C0E0D1E017
:107EE00062D089930C17E1F7F0E0CF16F0E7DF06D8
:107EF00018F0F601B7BEE89568D007B600FCFDCFD4
:107F0000A601A0E0B1E02C9130E011968C91119780
:107F100090E0982F8827822B932B1296FA010C0160
:107F200087BEE89511244E5F5F4FF1E0A038BF0790
:107F300051F7F601A7BEE89507B600FCFDCF97BE46
:107F4000E89526C08437B1F42ED02DD0F82E2BD052
:107F50003CD0F601EF2C8F010F5F1F4F84911BD097
:107F6000EA94F801C1F70894C11CD11CFA94CF0C13
:107F7000D11C0EC0853739F428D08EE10CD085E9AC
:107F80000AD08FE07ACF813511F488E018D01DD067
:107F900080E101D065CF982F8091C00085FFFCCF94
:107FA0009093C60008958091C00087FFFCCF809118
:107FB000C00084FD01C0A8958091C6000895E0E648
:107FC000F0E098E1908380830895EDDF803219F02E
:107FD00088E0F5DFFFCF84E1DECF1F93182FE3DFCA
:107FE0001150E9F7F2DF1F91089580E0E8DFEE27F6
:047FF000FF270994CA
:027FFE00040479
:00000001FF
